{
  "_format": "hh-sol-artifact-1",
  "contractName": "Raffle",
  "sourceName": "contracts/Raffle.sol",
  "abi": [
    {
      "inputs": [
        {
          "internalType": "address",
          "name": "vrfCoordinatorV2",
          "type": "address"
        },
        {
          "internalType": "uint256",
          "name": "entranceFee",
          "type": "uint256"
        },
        {
          "internalType": "bytes32",
          "name": "gasLane",
          "type": "bytes32"
        },
        {
          "internalType": "uint64",
          "name": "subscriptionId",
          "type": "uint64"
        },
        {
          "internalType": "uint32",
          "name": "callbackGasLimit",
          "type": "uint32"
        },
        {
          "internalType": "uint256",
          "name": "interval",
          "type": "uint256"
        }
      ],
      "stateMutability": "nonpayable",
      "type": "constructor"
    },
    {
      "inputs": [
        {
          "internalType": "address",
          "name": "have",
          "type": "address"
        },
        {
          "internalType": "address",
          "name": "want",
          "type": "address"
        }
      ],
      "name": "OnlyCoordinatorCanFulfill",
      "type": "error"
    },
    {
      "inputs": [],
      "name": "Raffle__NotEnoughETHEntered",
      "type": "error"
    },
    {
      "inputs": [],
      "name": "Raffle__RaffleNotOpen",
      "type": "error"
    },
    {
      "inputs": [],
      "name": "Raffle__TransferFailed",
      "type": "error"
    },
    {
      "inputs": [
        {
          "internalType": "uint256",
          "name": "currentBalance",
          "type": "uint256"
        },
        {
          "internalType": "uint256",
          "name": "numPlayers",
          "type": "uint256"
        },
        {
          "internalType": "uint256",
          "name": "raffleState",
          "type": "uint256"
        }
      ],
      "name": "Raffle__UpkeepNotNeeded",
      "type": "error"
    },
    {
      "anonymous": false,
      "inputs": [
        {
          "indexed": true,
          "internalType": "address",
          "name": "player",
          "type": "address"
        }
      ],
      "name": "RaffleEnter",
      "type": "event"
    },
    {
      "anonymous": false,
      "inputs": [
        {
          "indexed": true,
          "internalType": "uint256",
          "name": "requestId",
          "type": "uint256"
        }
      ],
      "name": "RequestedRaffleWinner",
      "type": "event"
    },
    {
      "anonymous": false,
      "inputs": [
        {
          "indexed": true,
          "internalType": "address",
          "name": "player",
          "type": "address"
        }
      ],
      "name": "WinnerPicked",
      "type": "event"
    },
    {
      "inputs": [
        {
          "internalType": "bytes",
          "name": "",
          "type": "bytes"
        }
      ],
      "name": "checkUpkeep",
      "outputs": [
        {
          "internalType": "bool",
          "name": "upkeepNeeded",
          "type": "bool"
        },
        {
          "internalType": "bytes",
          "name": "performData",
          "type": "bytes"
        }
      ],
      "stateMutability": "view",
      "type": "function"
    },
    {
      "inputs": [],
      "name": "enterRaffle",
      "outputs": [],
      "stateMutability": "payable",
      "type": "function"
    },
    {
      "inputs": [],
      "name": "getBlockTimestamp",
      "outputs": [
        {
          "internalType": "uint256",
          "name": "",
          "type": "uint256"
        }
      ],
      "stateMutability": "view",
      "type": "function"
    },
    {
      "inputs": [],
      "name": "getEntranceFee",
      "outputs": [
        {
          "internalType": "uint256",
          "name": "",
          "type": "uint256"
        }
      ],
      "stateMutability": "view",
      "type": "function"
    },
    {
      "inputs": [],
      "name": "getInterval",
      "outputs": [
        {
          "internalType": "uint256",
          "name": "",
          "type": "uint256"
        }
      ],
      "stateMutability": "view",
      "type": "function"
    },
    {
      "inputs": [],
      "name": "getLastTimeStamp",
      "outputs": [
        {
          "internalType": "uint256",
          "name": "",
          "type": "uint256"
        }
      ],
      "stateMutability": "view",
      "type": "function"
    },
    {
      "inputs": [],
      "name": "getNumWords",
      "outputs": [
        {
          "internalType": "uint256",
          "name": "",
          "type": "uint256"
        }
      ],
      "stateMutability": "pure",
      "type": "function"
    },
    {
      "inputs": [],
      "name": "getNumberOfPlayers",
      "outputs": [
        {
          "internalType": "uint256",
          "name": "",
          "type": "uint256"
        }
      ],
      "stateMutability": "view",
      "type": "function"
    },
    {
      "inputs": [
        {
          "internalType": "uint256",
          "name": "index",
          "type": "uint256"
        }
      ],
      "name": "getPlayer",
      "outputs": [
        {
          "internalType": "address",
          "name": "",
          "type": "address"
        }
      ],
      "stateMutability": "view",
      "type": "function"
    },
    {
      "inputs": [],
      "name": "getRaffleState",
      "outputs": [
        {
          "internalType": "enum Raffle.RaffleState",
          "name": "",
          "type": "uint8"
        }
      ],
      "stateMutability": "view",
      "type": "function"
    },
    {
      "inputs": [],
      "name": "getRecentWinner",
      "outputs": [
        {
          "internalType": "address",
          "name": "",
          "type": "address"
        }
      ],
      "stateMutability": "view",
      "type": "function"
    },
    {
      "inputs": [],
      "name": "getRequestConfirmations",
      "outputs": [
        {
          "internalType": "uint256",
          "name": "",
          "type": "uint256"
        }
      ],
      "stateMutability": "pure",
      "type": "function"
    },
    {
      "inputs": [
        {
          "internalType": "bytes",
          "name": "",
          "type": "bytes"
        }
      ],
      "name": "performUpkeep",
      "outputs": [],
      "stateMutability": "nonpayable",
      "type": "function"
    },
    {
      "inputs": [
        {
          "internalType": "uint256",
          "name": "requestId",
          "type": "uint256"
        },
        {
          "internalType": "uint256[]",
          "name": "randomWords",
          "type": "uint256[]"
        }
      ],
      "name": "rawFulfillRandomWords",
      "outputs": [],
      "stateMutability": "nonpayable",
      "type": "function"
    }
  ],
  "bytecode": "0x6101606040523480156200001257600080fd5b506040516200196938038062001969833981810160405281019062000038919062000294565b858073ffffffffffffffffffffffffffffffffffffffff1660808173ffffffffffffffffffffffffffffffffffffffff1681525050508461014081815250508573ffffffffffffffffffffffffffffffffffffffff1660a08173ffffffffffffffffffffffffffffffffffffffff16815250508360c081815250508267ffffffffffffffff1660e08167ffffffffffffffff16815250508163ffffffff166101008163ffffffff16815250506000600360006101000a81548160ff021916908360018111156200010d576200010c62000330565b5b0217905550806101208181525050426000819055505050505050506200035f565b600080fd5b600073ffffffffffffffffffffffffffffffffffffffff82169050919050565b6000620001608262000133565b9050919050565b620001728162000153565b81146200017e57600080fd5b50565b600081519050620001928162000167565b92915050565b6000819050919050565b620001ad8162000198565b8114620001b957600080fd5b50565b600081519050620001cd81620001a2565b92915050565b6000819050919050565b620001e881620001d3565b8114620001f457600080fd5b50565b6000815190506200020881620001dd565b92915050565b600067ffffffffffffffff82169050919050565b6200022d816200020e565b81146200023957600080fd5b50565b6000815190506200024d8162000222565b92915050565b600063ffffffff82169050919050565b6200026e8162000253565b81146200027a57600080fd5b50565b6000815190506200028e8162000263565b92915050565b60008060008060008060c08789031215620002b457620002b36200012e565b5b6000620002c489828a0162000181565b9650506020620002d789828a01620001bc565b9550506040620002ea89828a01620001f7565b9450506060620002fd89828a016200023c565b93505060806200031089828a016200027d565b92505060a06200032389828a01620001bc565b9150509295509295509295565b7f4e487b7100000000000000000000000000000000000000000000000000000000600052602160045260246000fd5b60805160a05160c05160e05161010051610120516101405161159a620003cf60003960008181610340015261043d015260008181610888015261093c015260006107470152600061072401526000610703015260006106c701526000818161037d01526103d1015261159a6000f3fe6080604052600436106100dd5760003560e01c80635f1b0fd81161007f57806391ad27b41161005957806391ad27b41461027e578063c1c244e8146102a9578063e55ae4e8146102d4578063fd6673f514610311576100dd565b80635f1b0fd8146101ea5780636e04ff0d14610215578063796b89b914610253576100dd565b80632cfcc539116100bb5780632cfcc539146101615780634585e33b1461016b578063473f1ddc1461019457806353a2c19a146101bf576100dd565b806309bc33a7146100e2578063115cbaf51461010d5780631fe543e314610138575b600080fd5b3480156100ee57600080fd5b506100f761033c565b6040516101049190610cb1565b60405180910390f35b34801561011957600080fd5b50610122610364565b60405161012f9190610d43565b60405180910390f35b34801561014457600080fd5b5061015f600480360381019061015a9190610ef7565b61037b565b005b61016961043b565b005b34801561017757600080fd5b50610192600480360381019061018d9190610fae565b6105aa565b005b3480156101a057600080fd5b506101a9610800565b6040516101b6919061103c565b60405180910390f35b3480156101cb57600080fd5b506101d461082a565b6040516101e19190610cb1565b60405180910390f35b3480156101f657600080fd5b506101ff610839565b60405161020c9190610cb1565b60405180910390f35b34801561022157600080fd5b5061023c60048036038101906102379190610fae565b610846565b60405161024a9291906110f1565b60405180910390f35b34801561025f57600080fd5b50610268610930565b6040516102759190610cb1565b60405180910390f35b34801561028a57600080fd5b50610293610938565b6040516102a09190610cb1565b60405180910390f35b3480156102b557600080fd5b506102be610960565b6040516102cb9190610cb1565b60405180910390f35b3480156102e057600080fd5b506102fb60048036038101906102f69190611121565b610969565b604051610308919061103c565b60405180910390f35b34801561031d57600080fd5b506103266109b1565b6040516103339190610cb1565b60405180910390f35b60007f0000000000000000000000000000000000000000000000000000000000000000905090565b6000600360009054906101000a900460ff16905090565b7f000000000000000000000000000000000000000000000000000000000000000073ffffffffffffffffffffffffffffffffffffffff163373ffffffffffffffffffffffffffffffffffffffff161461042d57337f00000000000000000000000000000000000000000000000000000000000000006040517f1cf993f400000000000000000000000000000000000000000000000000000000815260040161042492919061114e565b60405180910390fd5b61043782826109be565b5050565b7f0000000000000000000000000000000000000000000000000000000000000000341015610495576040517fbd4e069500000000000000000000000000000000000000000000000000000000815260040160405180910390fd5b600060018111156104a9576104a8610ccc565b5b600360009054906101000a900460ff1660018111156104cb576104ca610ccc565b5b14610502576040517fd24a271400000000000000000000000000000000000000000000000000000000815260040160405180910390fd5b6002339080600181540180825580915050600190039060005260206000200160009091909190916101000a81548173ffffffffffffffffffffffffffffffffffffffff021916908373ffffffffffffffffffffffffffffffffffffffff1602179055503373ffffffffffffffffffffffffffffffffffffffff167f0805e1d667bddb8a95f0f09880cf94f403fb596ce79928d9f29b74203ba284d460405160405180910390a2565b60003073ffffffffffffffffffffffffffffffffffffffff16636e04ff0d6040518163ffffffff1660e01b81526004016105e39061119d565b600060405180830381865afa158015610600573d6000803e3d6000fd5b505050506040513d6000823e3d601f19601f82011682018060405250810190610629919061128f565b509050806106985747600280549050600360009054906101000a900460ff16600181111561065a57610659610ccc565b5b6040517f584327aa00000000000000000000000000000000000000000000000000000000815260040161068f939291906112eb565b60405180910390fd5b6001600360006101000a81548160ff021916908360018111156106be576106bd610ccc565b5b021790555060007f000000000000000000000000000000000000000000000000000000000000000073ffffffffffffffffffffffffffffffffffffffff16635d3b1d307f00000000000000000000000000000000000000000000000000000000000000007f000000000000000000000000000000000000000000000000000000000000000060037f000000000000000000000000000000000000000000000000000000000000000060016040518663ffffffff1660e01b815260040161078895949392919061139a565b6020604051808303816000875af11580156107a7573d6000803e3d6000fd5b505050506040513d601f19601f820116820180604052508101906107cb9190611402565b9050807fcd6e45c8998311cab7e9d4385596cac867e20a0587194b954fa3a731c93ce78b60405160405180910390a250505050565b6000600160009054906101000a900473ffffffffffffffffffffffffffffffffffffffff16905090565b6000600163ffffffff16905090565b6000600361ffff16905090565b60006060600080600181111561085f5761085e610ccc565b5b600360009054906101000a900460ff16600181111561088157610880610ccc565b5b14905060007f0000000000000000000000000000000000000000000000000000000000000000600054426108b5919061145e565b10159050600080600280549050119050600080471190508280156108d65750835b80156108df5750805b80156108e85750815b9550856040518060400160405280600381526020017f307830000000000000000000000000000000000000000000000000000000000081525095509550505050509250929050565b600042905090565b60007f0000000000000000000000000000000000000000000000000000000000000000905090565b60008054905090565b60006002828154811061097f5761097e611492565b5b9060005260206000200160009054906101000a900473ffffffffffffffffffffffffffffffffffffffff169050919050565b6000600280549050905090565b6000600280549050826000815181106109da576109d9611492565b5b60200260200101516109ec91906114f0565b9050600060028281548110610a0457610a03611492565b5b9060005260206000200160009054906101000a900473ffffffffffffffffffffffffffffffffffffffff16905080600160006101000a81548173ffffffffffffffffffffffffffffffffffffffff021916908373ffffffffffffffffffffffffffffffffffffffff160217905550600067ffffffffffffffff811115610a8d57610a8c610db4565b5b604051908082528060200260200182016040528015610abb5781602001602082028036833780820191505090505b5060029080519060200190610ad1929190610bf1565b506000600360006101000a81548160ff02191690836001811115610af857610af7610ccc565b5b02179055504260008190555060008173ffffffffffffffffffffffffffffffffffffffff1647604051610b2a9061154f565b60006040518083038185875af1925050503d8060008114610b67576040519150601f19603f3d011682016040523d82523d6000602084013e610b6c565b606091505b5050905080610ba7576040517fa1d04b3900000000000000000000000000000000000000000000000000000000815260040160405180910390fd5b8173ffffffffffffffffffffffffffffffffffffffff167f5b690ec4a06fe979403046eaeea5b3ce38524683c3001f662c8b5a829632f7df60405160405180910390a25050505050565b828054828255906000526020600020908101928215610c6a579160200282015b82811115610c695782518260006101000a81548173ffffffffffffffffffffffffffffffffffffffff021916908373ffffffffffffffffffffffffffffffffffffffff16021790555091602001919060010190610c11565b5b509050610c779190610c7b565b5090565b5b80821115610c94576000816000905550600101610c7c565b5090565b6000819050919050565b610cab81610c98565b82525050565b6000602082019050610cc66000830184610ca2565b92915050565b7f4e487b7100000000000000000000000000000000000000000000000000000000600052602160045260246000fd5b60028110610d0c57610d0b610ccc565b5b50565b6000819050610d1d82610cfb565b919050565b6000610d2d82610d0f565b9050919050565b610d3d81610d22565b82525050565b6000602082019050610d586000830184610d34565b92915050565b6000604051905090565b600080fd5b600080fd5b610d7b81610c98565b8114610d8657600080fd5b50565b600081359050610d9881610d72565b92915050565b600080fd5b6000601f19601f8301169050919050565b7f4e487b7100000000000000000000000000000000000000000000000000000000600052604160045260246000fd5b610dec82610da3565b810181811067ffffffffffffffff82111715610e0b57610e0a610db4565b5b80604052505050565b6000610e1e610d5e565b9050610e2a8282610de3565b919050565b600067ffffffffffffffff821115610e4a57610e49610db4565b5b602082029050602081019050919050565b600080fd5b6000610e73610e6e84610e2f565b610e14565b90508083825260208201905060208402830185811115610e9657610e95610e5b565b5b835b81811015610ebf5780610eab8882610d89565b845260208401935050602081019050610e98565b5050509392505050565b600082601f830112610ede57610edd610d9e565b5b8135610eee848260208601610e60565b91505092915050565b60008060408385031215610f0e57610f0d610d68565b5b6000610f1c85828601610d89565b925050602083013567ffffffffffffffff811115610f3d57610f3c610d6d565b5b610f4985828601610ec9565b9150509250929050565b600080fd5b60008083601f840112610f6e57610f6d610d9e565b5b8235905067ffffffffffffffff811115610f8b57610f8a610f53565b5b602083019150836001820283011115610fa757610fa6610e5b565b5b9250929050565b60008060208385031215610fc557610fc4610d68565b5b600083013567ffffffffffffffff811115610fe357610fe2610d6d565b5b610fef85828601610f58565b92509250509250929050565b600073ffffffffffffffffffffffffffffffffffffffff82169050919050565b600061102682610ffb565b9050919050565b6110368161101b565b82525050565b6000602082019050611051600083018461102d565b92915050565b60008115159050919050565b61106c81611057565b82525050565b600081519050919050565b600082825260208201905092915050565b60005b838110156110ac578082015181840152602081019050611091565b60008484015250505050565b60006110c382611072565b6110cd818561107d565b93506110dd81856020860161108e565b6110e681610da3565b840191505092915050565b60006040820190506111066000830185611063565b818103602083015261111881846110b8565b90509392505050565b60006020828403121561113757611136610d68565b5b600061114584828501610d89565b91505092915050565b6000604082019050611163600083018561102d565b611170602083018461102d565b9392505050565b50565b600061118760008361107d565b915061119282611177565b600082019050919050565b600060208201905081810360008301526111b68161117a565b9050919050565b6111c681611057565b81146111d157600080fd5b50565b6000815190506111e3816111bd565b92915050565b600080fd5b600067ffffffffffffffff82111561120957611208610db4565b5b61121282610da3565b9050602081019050919050565b600061123261122d846111ee565b610e14565b90508281526020810184848401111561124e5761124d6111e9565b5b61125984828561108e565b509392505050565b600082601f83011261127657611275610d9e565b5b815161128684826020860161121f565b91505092915050565b600080604083850312156112a6576112a5610d68565b5b60006112b4858286016111d4565b925050602083015167ffffffffffffffff8111156112d5576112d4610d6d565b5b6112e185828601611261565b9150509250929050565b60006060820190506113006000830186610ca2565b61130d6020830185610ca2565b61131a6040830184610ca2565b949350505050565b6000819050919050565b61133581611322565b82525050565b600067ffffffffffffffff82169050919050565b6113588161133b565b82525050565b600061ffff82169050919050565b6113758161135e565b82525050565b600063ffffffff82169050919050565b6113948161137b565b82525050565b600060a0820190506113af600083018861132c565b6113bc602083018761134f565b6113c9604083018661136c565b6113d6606083018561138b565b6113e3608083018461138b565b9695505050505050565b6000815190506113fc81610d72565b92915050565b60006020828403121561141857611417610d68565b5b6000611426848285016113ed565b91505092915050565b7f4e487b7100000000000000000000000000000000000000000000000000000000600052601160045260246000fd5b600061146982610c98565b915061147483610c98565b925082820390508181111561148c5761148b61142f565b5b92915050565b7f4e487b7100000000000000000000000000000000000000000000000000000000600052603260045260246000fd5b7f4e487b7100000000000000000000000000000000000000000000000000000000600052601260045260246000fd5b60006114fb82610c98565b915061150683610c98565b925082611516576115156114c1565b5b828206905092915050565b600081905092915050565b6000611539600083611521565b915061154482611177565b600082019050919050565b600061155a8261152c565b915081905091905056fea26469706673582212203c74ac0e6476a9f4d1f10c56518e75daa43eb46abb16c129d6fc33e599f0a0e964736f6c63430008110033",
  "linkReferences": {},
  "deployedLinkReferences": {}
}